S00C00006D61696E2E7372656373
S11300006015002049100000A9100000A91000008C
S113001000000000000000000000000000000000DC
S11300200000000000000000000000000133000098
S11300300000000000000000153400005B340000E4
S11300404910000049100000491000004910000048
S11300500000000049100000491000004910000091
S11300604910000049100000491000004910000028
S11300704910000049100000491000004910000018
S11300804910000049100000491000004910000008
S11300904910000049100000491000000000000051
S11300A049100000491000004910000049100000E8
S11300B0491000000000000049100000A90E0000D3
S1130400FFFFFFFFFFFFFFFFFFFFFFFFFEFFFFFFF9
S113041080B500AF494A88235B010021D150474988
S1130420464A474BD358474A1343454A8B50464B99
S1130430454A1268802109020A431A60424B424A23
S1130440126880218A431A60404B0022DA613F4BD4
S113045000221A623D4B00229A623C4B0022DA626F
S11304603A4B00225A65394B00229A65374B0022D9
S1130470DA65374B00225A64354B00229A64354BB7
S113048000221A60344B00221A61334B00225A6155
S11304902D4B324A1A602C4B00225A602A4B002200
S11304A09A60294B2E4A1A61274B2E4A5A61264BD1
S11304B0C02212039A61244B2B4ADA61224B002298
S11304C01A62214B00225A621F4B00229A621E4B71
S11304D00022DA621C4B254A1A631B4B00225A6322
S11304E0194B00229A63184B0022DA63164B002240
S11304F01A64154B00225A64134B11229A64124B4E
S11305000022DA64104B00221A650F4B22225A652E
S11305100D4B00229A650C4B0022DA650A4B0A4AFD
S1130520126813490A401A60074B074A126880216F
S11305300A431A60C046BD4680BDC04600700440F0
S113054038100000003C08000030054000A00440C2
S113055000B0044000C0044000D004406384B000F4
S1130560800D0E006001300000011000000088447E
S1130570FF7FFFFF80B582B000AF0200FB1D1A7041
S1130580BB1D0A1C1A70BB1D1B78042B03D9012048
S113059000F0A8FA9CE1FB1D1B780F2B00D994E115
S11305A09A00CD4BD3181B689F46CC49BB1D1B78C2
S11305B0013B5B00CA4AD35C2022CB189B18BB22A8
S11305C01A70C649BB1D1B785B00013BC44AD35C4F
S11305D02022CB189B18EE221A7079E1BF49BB1D6B
S11305E01B78013B5B00BE4AD35C2022CB189B18CE
S11305F000221A70B949BB1D1B785B00013BB84A45
S1130600D35C2022CB189B1866221A7060E1B34990
S1130610BB1D1B78013B5B00B14AD35C2022CB1885
S11306209B1877221A70AD49BB1D1B785B00013BF8
S1130630AB4AD35C2022CB189B18CC221A7047E11A
S1130640A649BB1D1B78013B5B00A54AD35C202255
S1130650CB189B1855221A70A049BB1D1B785B0050
S1130660013B9F4AD35C2022CB189B18EE221A70C0
S11306702EE19A49BB1D1B78013B5B00984AD35C71
S11306802022CB189B18CC221A709449BB1D1B78CE
S11306905B00013B924AD35C2022CB189B18662254
S11306A01A7015E18D49BB1D1B78013B5B008C4A18
S11306B0D35C2022CB189B18DD221A708749BB1DFE
S11306C01B785B00013B864AD35C2022CB189B1825
S11306D0AA221A70FCE08149BB1D1B78013B5B0018
S11306E07F4AD35C2022CB189B18FF221A707B49C7
S11306F0BB1D1B785B00013B794AD35C2022CB18DD
S11307009B18AA221A70E3E07449BB1D1B78013BB5
S11307105B00734AD35C2022CB189B1800221A700A
S11307206E49BB1D1B785B00013B6D4AD35C2022E4
S1130730CB189B18EE221A70CAE06849BB1D1B78BF
S1130740013B5B00664AD35C2022CB189B18FF2236
S11307501A706249BB1D1B785B00013B604AD35C85
S11307602022CB189B18EE221A70B1E05B49BB1D06
S11307701B78013B5B005A4AD35C2022CB189B18A0
S1130780CC221A705549BB1D1B785B00013B544AAF
S1130790D35C2022CB189B18EE221A7098E04F49A4
S11307A0BB1D1B78013B5B004D4AD35C2022CB1858
S11307B09B18EE221A704949BB1D1B785B00013B54
S11307C0474AD35C2022CB189B18EE221A707FE094
S11307D04249BB1D1B78013B5B00414AD35C20228C
S11307E0CB189B18FF221A703C49BB1D1B785B0079
S11307F0013B3B4AD35C2022CB189B1822221A705F
S113080066E03649BB1D1B78013B5B00344AD35C70
S11308102022CB189B18BB221A703049BB1D1B78B1
S11308205B00013B2E4AD35C2022CB189B18882204
S11308301A704DE02949BB1D1B78013B5B00284A17
S1130840D35C2022CB189B1877221A702349BB1D36
S11308501B785B00013B224AD35C2022CB189B18F7
S113086066221A7034E01D49BB1D1B78013B5B00F6
S11308701B4AD35C2022CB189B18FF221A701749FD
S1130880BB1D1B785B00013B154AD35C2022CB18AF
S11308909B1888221A701BE01049BB1D1B78013B72
S11308A05B000F4AD35C2022CB189B18EE221A70EF
S11308B00A49BB1D1B785B00013B094AD35C20221B
S11308C0CB189B1888221A7002E0012000F00AF964
S11308D0BD4602B080BDC04654480000003005400B
S11308E04C48000090B583B000AF0200BB1D1A80D5
S11308F0BB1D1B88304A934203D9102000F0F2F844
S113090055E0BB1D1A88FA239900100002F0D0FDAF
S113091003009BB2DBB201211800FFF72BFEBB1DC5
S11309201C88BB1D1A88FA239900100002F0C0FD30
S113093003009BB21A00214B5343E31864211800AF
S113094002F040FE0300DBB202211800FFF712FEA2
S1130950BB1D1C88BB1D1B886421180002F0A8FD68
S113096003009BB21A0064235B425343E3180A2139
S1130970180002F027FE0300DBB203211800FFF782
S1130980F9FDBB1D1B88DCB2BB1D1B880A211800A6
S113099002F08EFD03009BB2DBB20A2252425343A3
S11309A0DBB2E318DBB204211800FFF7E3FDC04615
S11309B0BD4603B090BDC0460F27000018FCFFFFE2
S11309C080B582B000AF0200BB1D1A80BB1D1B881E
S11309D01B0B9BB2DBB201211800FFF7CBFDBB1D43
S11309E01B881B12DBB20F221340DBB2022118005A
S11309F0FFF7C0FDBB1D1B881B11DBB20F22134088
S1130A00DBB203211800FFF7B5FDBB1D1B88DBB269
S1130A100F221340DBB204211800FFF7ABFDC046E0
S1130A20BD4602B080BD80B582B000AF0200FB1DA0
S1130A301A70BB1D0A1C1A70FB1D1B7863229A4294
S1130A409B415B42DAB2BB1D1B78632199429B41F7
S1130A505B42DBB21343DBB2002B03D0102000F067
S1130A6041F839E0FB1D1B780A21180002F020FD33
S1130A700300DBB201211800FFF77CFDFB1D1B788E
S1130A800A21180002F09AFD0B00DBB202211800C3
S1130A90FFF770FDBB1D1B780A21180002F008FD4A
S1130AA00300DBB203211800FFF764FDBB1D1B78B4
S1130AB00A21180002F082FD0B00DBB204211800A9
S1130AC0FFF758FD064A06492B23CB5CDBB2112104
S1130AD00B43D9B22B23D154C046BD4602B080BDCE
S1130AE00030054080B582B000AF0200FB1D1A70D3
S1130AF0174A4523FF21D154154A31238821D15463
S1130B00134A27236621D154114A28230021D154A2
S1130B100F4A55236621D1540D4A46230021D1544E
S1130B20FB1D1B780F2B06D8FB1D1B780421180016
S1130B30FFF720FD07E0064A2A230021D154044A86
S1130B402B230021D154C046BD4602B080BDC0460F
S1130B500030054080B582B000AF0200FB1D1A7062
S1130B60FB1D1B787F2B09D8064BFA1D1278110048
S1130B701F220A40012191400A001A60C046BD4666
S1130B8002B080BD00E100E0B0B582B000AF020069
S1130B903960FB1D1A70FB1D1B787F2B28D82F4C46
S1130BA0FB1D1B785BB29B082C49FA1D127852B2CC
S1130BB09208C03292005258F91D097808000321A6
S1130BC00140C900FF2088400100C94311403A6830
S1130BD09201FF201040FA1D1278150003222A40CA
S1130BE0D200904002000A43C0339B001A5131E006
S1130BF01B4CFB1D1B781A000F231340083B99085C
S1130C00174AFB1D1B7818000F230340083B9B0861
S1130C1006339B00D31804331B68FA1D12781000A6
S1130C2003220240D200FF2090400200D2431A4027
S1130C303B689B01FF201840FB1D1B781D0003230C
S1130C402B40DB00984003001A438B1D9B00E318E4
S1130C5004331A60C046BD4602B0B0BD00E100E0F6
S1130C6000ED00E080B500AF044B03221A70034B83
S1130C7000225A70C046BD4680BDC04600400640B2
S1130C8080B500AF184A88235B010021D150164972
S1130C90154A164BD358802212011343134A8B5022
S1130CA0134B134AD268802149000A43DA60104B7F
S1130CB00F4AD26802210A43DA600D4B0C4AD2680B
S1130CC001210A43DA600A4B094AD268A0210903C8
S1130CD00A43DA6000211F20FFF756FF1F20FFF7A9
S1130CE039FFC046BD4680BD007004403810000086
S1130CF000B0044080B500AF184A88235B0100218E
S1130D00D1501649154A164BD35880221201134369
S1130D10134A8B50134B134A126B802149000A4328
S1130D201A63104B0F4A126B02210A431A630D4BCC
S1130D300C4A126B01210A431A630A4B094A126BCB
S1130D40A02109030A431A6300211F20FFF71CFF97
S1130D501F20FFF7FFFEC046BD4680BD0070044063
S1130D603810000000B0044080B500AF0E4A88235C
S1130D705B010021D1500C490B4A0C4BD358802203
S1130D8052011343094A8B50094B802252005A6185
S1130D90084B084A526920210A435A61054B202214
S1130DA05A60C046BD4680BD007004403810000043
S1130DB000C00440C0F00F4080B500AF024B2022B9
S1130DC0DA60C046BD4680BDC0F00F4080B500AFBC
S1130DD0044B044A926820210A439A60C046BD46E7
S1130DE080BDC046C0F00F4080B500AF044B044A3C
S1130DF0526820210A435A60C046BD4680BDC046A1
S1130E00C0F00F4080B500AF0F4A88235B0100217A
S1130E10D1500D490C4A0D4BD358802292011343F3
S1130E200A4A8B500A4B802252005A67094B094ADE
S1130E305269802189050A435A61064B8022920532
S1130E405A60C046BD4680BD0070044038100000A2
S1130E5000D0044000F10F4080B500AF034B802266
S1130E609205DA60C046BD4680BDC04600F10F4021
S1130E7080B500AF044B044A9268802189050A4377
S1130E809A60C046BD4680BDC0F00F4080B500AF3B
S1130E90044B044A5268802189050A435A60C046BB
S1130EA0BD4680BDC0F00F4080B582B000AF0E4A91
S1130EB0A023D3587B600C49A02201235B428B50B2
S1130EC07A6880235B019A4205D1084B01221A609B
S1130ED0FFF7CEFF04E0054B00221A60FFF7D6FFB0
S1130EE0C046BD4602B080BD00B0044020E0FF1FF4
S1130EF080B584B000AF78600023FB600022042139
S1130F00052000F0D4F90200094B1A600123FB60AC
S1130F10074B1868F9680023002200F0A9FAFA23A5
S1130F209B00180001F066F8FFF750FFFEE7C0468B
S1130F301811002090B585B000AF78600023FB60E5
S1130F400E4B1B68002BFBD00C4B1868F968002370
S1130F50642200F0FDFB031EF2D0F86803F096FA59
S1130F60074B5C681B681A00230002F035FC030081
S1130F700C00034A13605460E2E7C04618110020D5
S1130F8028E0FF1F90B583B000AF7860064B5C6823
S1130F901B681800210002F001FC03009BB218003A
S1130FA0FFF7A0FCF2E7C04628E0FF1F80B584B03D
S1130FB004AFFFF757FEFFF7D7FEFFF723FFFFF756
S1130FC027FAFFF75DFEFFF795FE16491648002342
S1130FD0039300230293154B0193012300930023F1
S1130FE0502200F0F1FE124912480023039300231B
S1130FF00293114B0193012300930023502200F02C
S1131000E3FE0E490E4800230393002302930D4B85
S11310100193012300930023502200F0D5FE01F038
S11310201DF8FEE794480000850F000008E0FF1F4C
S1131030A0480000350F000010E0FF1FB04800007A
S1131040F10E00000CE0FF1F80B582B000AF114B21
S11310507B60114B3B6007E03B681A1D3A607A687D
S1131060111D796012681A603A680C4B9A42F3D3E6
S11310700B4B3B6004E03B681A1D3A6000221A6087
S11310803A68084B9A42F6D3FFF790FFC046BD4634
S113109002B080BDF848000000E0FF1F08E0FF1F19
S11310A008E0FF1F5C11002080B500AFFEE7C046DA
S11310B080B582B000AF78607B6808331A007B6823
S11310C05A607B68012252429A607B6808331A0096
S11310D07B68DA607B6808331A007B681A617B6876
S11310E000221A60C046BD4602B080BD80B582B001
S11310F000AF78607B6800221A61C046BD4602B02A
S113110080BD80B584B000AF786039607B685B686F
S1131110FB603B68FA685A60FB689A683B689A60AF
S1131120FB689B683A685A60FB683A689A603B6857
S11311307A681A617B681B685A1C7B681A60C0460F
S1131140BD4604B080BD80B584B000AF786039601E
S11311503B681B68BB60BB68013303D17B681B69B8
S1131160FB600CE07B680833FB6002E0FB685B68B3
S1131170FB60FB685B681A68BB689A42F6D9FB6837
S11311805A683B685A603B685B683A689A603B6897
S1131190FA689A60FB683A685A603B687A681A6130
S11311A07B681B685A1C7B681A60C046BD4604B045
S11311B080BD80B584B000AF78607B681B69FB603C
S11311C07B685B687A6892689A607B689B687A68D7
S11311D052685A60FB685A687B689A4203D17B68FC
S11311E09A68FB685A607B6800221A61FB681B6876
S11311F05A1EFB681A60FB681B681800BD4604B0E1
S113120080BD000080B584B000AF786039607B6831
S1131210FB60FB68002B01D172B6FEE702F0C6F852
S1131220FB681A68FB68D96BFB681B6C4B43D218CC
S1131230FB685A60FB6800229A63FB681A68FB68C3
S11312409A60FB681A68FB68DB6B591EFB681B6CB1
S11312504B43D218FB68DA60FB68012252425A649D
S1131260FB68012252429A643B68002B0ED1FB6852
S11312701B69002B14D0FB681033180001F056F9D9
S11312800300012B0CD102F081F809E0FB68103354
S11312901800FFF70DFFFB6824331800FFF708FF61
S11312A002F096F801231800BD4604B080BD80B555
S11312B088B000AFF860B960FB1D1A700023BB61F1
S11312C0FB68002B01D172B6FEE7BB68002B02D18C
S11312D00023FB6104E0FB68BA6853430133FB61FC
S11312E0FB694C33180001F0D7FE03007B617B6976
S11312F0002B18D0BB68002B03D17B697A691A6074
S113130004E07B694C331A007B691A607B69FA68D4
S1131310DA637B69BA681A647B6901211800FFF7F4
S113132071FF7B69BB61BB69002B01D172B6FEE71B
S1131330BB691800BD4608B080BD80B584B000AF5D
S11313400200FB1D1A704C2001F0A6FE0300FB6096
S1131350FB68002B2CD0FB6800225A60FB6800223B
S11313601A60FB6800229A60FB680022DA60FB685E
S113137000229A63FB680122DA63FB6800221A6484
S1131380FB68012252425A64FB68012252429A6469
S1131390FB6810331800FFF78BFEFB68243318003A
S11313A0FFF786FEF86800230022002100F060F8B1
S11313B0FB681800BD4604B080BD90B585B000AF91
S11313C078607B68BB60BB68002B01D172B6FEE716
S11313D0BB685C6801F0F6FA03009C4211D1BB685B
S11313E0DB685A1EBB68DA60BB68DB68002B05D17A
S11313F0B86800230022002100F03AF80123FB60C2
S113140001E00023FB60FB681800BD4605B090BDF9
S113141090B585B000AF786039607B68BB60BB680D
S1131420002B01D172B6FEE7BB685C6801F0CAFA12
S113143003009C4207D1BB68DB685A1CBB68DA60B6
S11314400123FB600FE03A68B8680023002100F034
S11314507FF90300FB60FB68012B04D1BB68DB68E8
S11314605A1CBB68DA60FB681800BD4605B090BD25
S113147080B58AB000AFF860B9607A603B60002341
S11314807B62FB683B623B6A002B01D172B6FEE7CC
S1131490BB68002B03D13B6A1B6C002B01D10123D9
S11314A000E00023002B01D172B6FEE73B68022B5B
S11314B003D13B6ADB6B012B01D1012300E0002344
S11314C0002B01D172B6FEE701F070FF3B6A9A6B04
S11314D03B6ADB6B9A4202D33B68022B1FD13A680A
S11314E0B9683B6A180000F0ECFA0300FB613B6A40
S11314F05B6A002B0AD03B6A2433180001F016F80B
S11315000300012B07D101F041FF04E0FB69002B2C
S113151001D001F03BFF01F05BFF012355E07B6844
S1131520002B03D101F054FF00234EE07B6A002B13
S113153006D11423FB18180001F0ACF801237B62D8
S113154001F046FF00F0D0FD01F030FF3B6A5B6C18
S1131550013302D13B6A00225A643B6A9B6C01331B
S113156002D13B6A00229A6401F032FF3A1D14232F
S1131570FB181100180001F0A7F8031E1ED13B6AE6
S1131580180000F0A7FB031E11D03B6A10337A68E1
S11315901100180000F066FF3B6A180000F023FBFE
S11315A000F0AEFD031E8FD101F0F0FE8CE73B6A24
S11315B0180000F018FB00F0A3FD85E73B6A180053
S11315C000F011FB00F09CFD00231800BD460AB09A
S11315D080BD80B588B000AFF860B9607A603B60C8
S11315E0FB68BB61BB69002B01D172B6FEE7BB6827
S11315F0002B03D1BB691B6C002B01D1012300E03C
S11316000023002B01D172B6FEE73B68022B03D105
S1131610BB69DB6B012B01D1012300E00023002B0C
S113162001D172B6FEE701F0EBFE03007B61BB69FA
S11316309A6BBB69DB6B9A4202D33B68022B23D1C2
S11316403A68B968BB69180000F03BFABB699B6C47
S1131650013311D1BB695B6A002B12D0BB692433FF
S1131660180000F063FF031E0BD07B68002B08D02A
S11316707B6801221A6004E0BB699B6C5A1CBB693D
S11316809A640123FB6101E00023FB617B6918007C
S113169001F0BCFEFB691800BD4608B080BD80B5F2
S11316A086B000AF786039607B683B613B69002B92
S11316B001D172B6FEE73B691B6C002B01D072B6F8
S11316C0FEE73B691B68002B03D13B695B68002B79
S11316D001D1012300E00023002B01D172B6FEE703
S11316E001F08EFE0300FB603B699A6B3B69DB6B88
S11316F09A4222D23B699B6B5A1C3B699A633B69B1
S11317009B6C013311D13B695B6A002B12D03B699E
S11317102433180000F00AFF031E0BD03B68002B93
S113172008D03B6801221A6004E03B699B6C5A1C98
S11317303B699A6401237B6101E000237B61FB68C0
S1131740180001F063FE7B691800BD4606B080BD39
S113175080B58AB000AFF860B9607A603B6000235E
S11317607B62FB683B623B6A002B01D172B6FEE7E9
S1131770BB68002B03D13B6A1B6C002B01D10123F6
S113178000E00023002B01D172B6FEE701F00EFE4B
S11317903B6A9B6B002B3CD03B6ADB68FB61BA68FD
S11317A03B6A1100180000F0F8F93B68002B1CD1CB
S11317B03B6A9B6B5A1E3B6A9A633B6A1B68002B0D
S11317C004D101F0DDF902003B6A5A603B6A1B69EF
S11317D0002B1AD03B6A1033180000F0A7FE030058
S11317E0012B12D101F0D2FD0FE03B6AFA69DA60F5
S11317F03B6A5B6A002B08D03B6A2433180000F074
S113180095FE031E01D001F0C1FD01F0E1FD0123AD
S113181063E07B68002B03D101F0DAFD00235CE078
S11318207B6A002B06D11423FB18180000F032FF4A
S113183001237B6201F0CCFD00F056FC01F0B6FD03
S11318403B6A5B6C013302D13B6A00225A643B6AF7
S11318509B6C013302D13B6A00229A6401F0B8FD0B
S11318603A1D1423FB181100180000F02DFF031E6D
S11318702CD13B6A180000F000FA031E1FD03B6A0B
S11318801B68002B08D101F091FD3B6A5B681800CE
S113189001F0A6F801F09CFD3B6A24337A6811003C
S11318A0180000F0DFFD3B6A180000F09CF900F01E
S11318B027FC031E00D069E701F068FD66E73B6A78
S11318C0180000F090F900F01BFC5FE73B6A180079
S11318D000F089F900F014FC00231800BD460AB09A
S11318E080BD80B588B000AFF860B9607A60FB68ED
S11318F0BB61BB69002B01D172B6FEE7BB68002B4C
S113190003D1BB691B6C002B01D1012300E0002330
S1131910002B01D172B6FEE701F072FD03007B617A
S1131920BB699B6B002B28D0BA68BB6911001800F7
S113193000F033F9BB699B6B5A1EBB699A63BB69A0
S11319405B6C013311D1BB691B69002B12D0BB69DD
S11319501033180000F0EAFD031E0BD07B68002B47
S113196008D07B6801221A6004E0BB695B6C5A1CD6
S1131970BB695A640123FB6101E00023FB617B69BD
S1131980180001F043FDFB691800BD4608B080BD96
S113199080B586B000AF786039607B683B613B6995
S11319A0002B01D172B6FEE73B68002B03D13B69E3
S11319B01B6C002B01D1012300E00023002B01D17B
S11319C072B6FEE73B691B6C002B01D172B6FEE7D1
S11319D001F016FD0300FB603B699B6B002B0ED0EE
S11319E03B69DB68BB603A683B691100180000F092
S11319F0D4F83B69BA68DA6001237B6101E0002313
S1131A007B61FB68180001F001FD7B691800BD468D
S1131A1006B080BD80B584B000AF78607B68002BD1
S1131A2001D172B6FEE701F0C1FC7B689B6BFB60E1
S1131A3001F0CEFCFB681800BD4604B080BD80B543
S1131A4084B000AF78607B68FB60FB68002B01D139
S1131A5072B6FEE701F0AAFCFB68DA6BFB689B6BCD
S1131A60D31ABB6001F0B4FCBB681800BD4604B0D7
S1131A7080BD80B584B000AF78607B68002B01D155
S1131A8072B6FEE77B689B6BFB60FB681800BD4683
S1131A9004B080BD80B584B000AF78607B68FB6023
S1131AA0FB68002B01D172B6FEE7FB68180000F05A
S1131AB069F9FB68180001F07DFBC046BD4604B01F
S1131AC080BD80B586B000AFF860B9607A6000234D
S1131AD07B61FB681B6C002B0ED1FB681B68002B21
S1131AE051D1FB685B68180000F0D8FF03007B61EC
S1131AF0FB6800225A6046E07B68002B19D1FB6822
S1131B009868FB681A6CBB68190002F05DFEFB68FC
S1131B109A68FB681B6CD218FB689A60FB689A6829
S1131B20FB685B689A422ED3FB681A68FB689A606C
S1131B3029E0FB68D868FB681A6CBB68190002F0DE
S1131B4043FEFB68DA68FB681B6C5B42D218FB68D7
S1131B50DA60FB68DA68FB681B689A4207D2FB68A4
S1131B605A68FB681B6C5B42D218FB68DA607B68BE
S1131B70022B08D1FB689B6B002B04D0FB689B6B8A
S1131B805A1EFB689A63FB689B6B5A1CFB689A633A
S1131B907B691800BD4606B080BD80B582B000AF39
S1131BA0786039607B681B6C002B18D07B68DA681E
S1131BB07B681B6CD2187B68DA607B68DA687B68A8
S1131BC05B689A4203D37B681A687B68DA607B6837
S1131BD0D9687B681A6C3B68180002F0F5FDC046B2
S1131BE0BD4602B080BD80B582B000AF786001F020
S1131BF0DDFB11E07B685B6A002B12D07B68243329
S1131C00180000F093FC031E01D000F0A5FD7B68D2
S1131C109B6C5A1E7B689A647B689B6C002BE9DC86
S1131C2000E0C0467B68012252429A6401F0D0FB76
S1131C3001F0BCFB11E07B681B69002B12D07B68B0
S1131C401033180000F072FC031E01D000F084FD74
S1131C507B685B6C5A1E7B685A647B685B6C002BE8
S1131C60E9DC00E0C0467B68012252425A6401F07C
S1131C70AFFBC046BD4602B080BD80B584B000AFA6
S1131C80786001F093FB7B689B6B002B02D10123EE
S1131C90FB6001E00023FB6001F09AFBFB68180085
S1131CA0BD4604B080BD80B584B000AF78607B6869
S1131CB0002B01D172B6FEE77B689B6B002B02D12F
S1131CC00123FB6001E00023FB60FB681800BD46B4
S1131CD004B080BD80B584B000AF786001F066FBCD
S1131CE07B689A6B7B68DB6B9A4202D10123FB60B1
S1131CF001E00023FB6001F06BFBFB681800BD46AC
S1131D0004B080BD80B584B000AF78607B68002BE0
S1131D1001D172B6FEE77B689A6B7B68DB6B9A42F3
S1131D2002D10123FB6001E00023FB60FB68180083
S1131D30BD4604B080BD80B584B000AF7860396022
S1131D400023FB6015E00E4BFA68D200D358002B39
S1131D500CD10B4BFA68D2003968D150084AFB68A1
S1131D60DB00D31804337A681A6005E0FB6801339A
S1131D70FB60FB68072BE6D9C046BD4604B080BDB6
S1131D801C11002080B584B000AF78600023FB6094
S1131D9011E00C4AFB68DB00D31804331A687B6833
S1131DA09A4205D1074BFA68D2000021D15005E0D0
S1131DB0FB680133FB60FB68072BEAD9C046BD46CC
S1131DC004B080BD1C11002090B58BB002AFF86048
S1131DD0B9603B60BB1D1A80FB68002B01D172B651
S1131DE0FEE73B6B042B01D972B6FEE7BA6BBB1D51
S1131DF01B881100180000F093FD0300BB61BB6950
S1131E00002B00D170E0BB691A6BBB1D1B884249D3
S1131E108C4663449B00D3187B617B690722934300
S1131E207B617B690722134001D072B6FEE7FC6B2D
S1131E303A6BB968B869BB1D1B880093230000F096
S1131E40A5FC3A68F9687B69180001F023FA0200DE
S1131E50BB691A607B6B002B02D07B6BBA691A607A
S1131E6001F0A4FA2D4B1B685A1C2C4B1A602C4B06
S1131E701B68002B09D12A4BBA691A60274B1B68CF
S1131E80012B0FD100F0D7FC0CE0264B1B68002B74
S1131E9008D1234B1B68DA6A3B6B9A4202D8204B69
S1131EA0BA691A60204B1B685A1C1F4B1A60BB6925
S1131EB0DA6A1E4B1B689A4203D9BB69DA6A1B4B68
S1131EC01A60BB69DA6A13009B009B189B00184ACE
S1131ED09A18BB69043319001000FFF712F90123A3
S1131EE0FB6101F075FA02E001235B42FB61FB69CF
S1131EF0012B0BD10B4B1B68002B07D0084B1B6825
S1131F00DA6A3B6B9A4201D201F040FAFB6918008D
S1131F10BD4609B090BDC046FFFFFF3FDCE0FF1F98
S1131F2030E0FF1FE8E0FF1FF8E0FF1FE4E0FF1FC1
S1131F3034E0FF1F80B586B000AF786039600023BD
S1131F407B617B68002B01D172B6FEE73B68002BF6
S1131F5001D172B6FEE7244B1B68002B01D072B688
S1131F60FEE700F0C1F8214B1B683B617B681A68EF
S1131F703B68D318FB607B681A683B699A420BD9AB
S1131F807B681A68FB689A4211D9FA683B699A42DD
S1131F900DD901237B610AE07B681A68FB689A42C9
S1131FA003D8FA683B699A4201D901237B617B68B3
S1131FB0FA681A607B69002B09D00D4B1B68043347
S1131FC01800FFF7F6F8FB68180000F072FC00F048
S1131FD097F80300BB60BB68002B01D101F0D6F970
S1131FE0C046BD4606B080BD00E1FF1FE0E0FF1F14
S1131FF030E0FF1F80B584B000AF78600023FB6041
S11320007B68002B1AD0124B1B68002B01D072B6D0
S1132010FEE700F069F80F4B1A687B68D318BB60C1
S11320200D4B1B6804331800FFF7C3F8BB68180096
S113203000F03FFC00F064F80300FB60FB68002B39
S113204001D101F0A3F9C046BD4604B080BDC0462D
S113205000E1FF1FE0E0FF1F30E0FF1F80B586B006
S113206004AF15491548002303930023029300236A
S113207001930023009300235022FFF7A5FE0300E1
S11320807B607B68012B0DD172B60D4B012252424D
S11320901A600C4B01221A600B4B00221A6001F0EB
S11320A044F904E07B68002B01D172B6FEE7C04618
S11320B0BD4602B080BDC046C04800006D27000088
S11320C0FCE0FF1FE8E0FF1FE0E0FF1F80B500AF6A
S11320D072B6044B00221A6001F048F9C046BD46AE
S11320E080BDC046E8E0FF1F80B500AF034B1B680E
S11320F05A1C024B1A60C046BD4680BD00E1FF1F5A
S113210080B582B000AF00237B60374B1B68002B87
S113211001D172B6FEE701F049F9334B1B685A1E30
S1132120314B1A60304B1B68002B55D12F4B1B6869
S1132130002B51D02FE02E4BDB68DB683B603B6803
S113214018331800FFF735F83B6804331800FFF71D
S113215030F83B68DA6A274B1B689A4203D93B681C
S1132160DA6A244B1A603B68DA6A13009B009B18F6
S11321709B00214A9A183B68043319001000FEF7AB
S1132180C0FF3B68DA6A1D4B1B68DB6A9A4202D3C4
S11321901B4B01221A60164B1B68002BCBD1194B29
S11321A01B68002B10D00BE000F056F8031E02D081
S11321B0134B01221A60134B1B685A1E114B1A60F1
S11321C0104B1B68002BEFD10D4B1B68012B03D167
S11321D001237B6001F0DAF801F0FAF87B6818005B
S11321E0BD4602B080BDC04600E1FF1FDCE0FF1F1A
S11321F0C8E0FF1FE4E0FF1F34E0FF1F30E0FF1FD3
S1132200F0E0FF1FECE0FF1F80B582B000AF044B8D
S11322101B687B607B681800BD4602B080BDC04669
S1132220E0E0FF1F80B582B000AF00237B60044B69
S11322301B683B603B681800BD4602B080BDC046C9
S1132240E0E0FF1F80B500AF024B1B681800BD46DD
S113225080BDC046DCE0FF1F80B586B000AF002320
S11322607B614D4B1B68002B00D084E04B4B1B68FB
S11322705A1C4A4B1A60494B1B683B613B69002B53
S113228017D1474B1B681B68002B01D072B6FEE7C1
S1132290434B1B68FB60434B1A68414B1A60414B2C
S11322A0FA681A60404B1B685A1C3F4B1A6000F0D6
S11322B066FB3E4B1B683A699A424ED3384B1B6807
S11322C01B68002B01D1012300E00023002B04D064
S11322D0364B012252421A603FE0314B1B68DB68E7
S11322E0DB68BB60BB685B687B603A697B689A4269
S11322F003D22E4B7A681A602FE0BB6804331800AF
S1132300FEF757FFBB689B6A002B04D0BB681833E9
S11323101800FEF74EFFBB68DA6A254B1B689A4229
S113232003D9BB68DA6A224B1A60BB68DA6A130005
S11323309B009B189B001F4A9A18BB680433190022
S11323401000FEF7DEFEBB68DA6A1B4B1B68DB6A13
S11323509A42B3D301237B61B0E7174B1B68DA6A57
S1132360144913009B009B189B005B58012B07D951
S113237001237B6104E0114B1B685A1C0F4B1A604C
S11323800F4B1B68002B01D001237B617B69180074
S1132390BD4606B080BDC04600E1FF1FE0E0FF1F60
S11323A0C0E0FF1FC4E0FF1FF4E0FF1FFCE0FF1FBD
S11323B0E4E0FF1F34E0FF1F30E0FF1FECE0FF1FED
S11323C0F0E0FF1F80B582B000AF214B1B68002BEB
S11323D003D0204B01221A6036E01E4B00221A6003
S11323E00AE01D4B1B68002B01D172B6FEE71A4BA5
S11323F01B685A1E184B1A60174B1A6817491300AA
S11324009B009B189B005B58002BEAD0124B1A6868
S113241013009B009B189B00104A9B187B607B68F1
S11324205B685A687B685A607B685A687B680833C3
S11324309A4204D17B685B685A687B685A607B68FF
S11324405B68DA68064B1A60C046BD4602B080BDC0
S113245000E1FF1FF0E0FF1FE4E0FF1F34E0FF1F77
S113246030E0FF1F80B584B000AF786039607B68CE
S1132470002B01D172B6FEE70D4B1B6818331A000E
S11324807B6811001800FEF75EFE094B1B680433DD
S11324901800FEF78EFE074B1A683B68D318FB60E2
S11324A0FB68180000F005FAC046BD4604B080BDC4
S11324B030E0FF1FE0E0FF1F80B586B000AFF8609A
S11324C0B9607A60FB68002B01D172B6FEE7144B49
S11324D01B68002B01D172B6FEE7124B1B68BA6869
S11324E0802109060A439A610E4B1B6818331A00AF
S11324F0FB6811001800FEF704FE0A4B1B68043346
S11325001800FEF756FE084B1A687B68D3187B61E7
S11325107B69180000F0CDF9C046BD4606B080BD09
S113252000E1FF1F30E0FF1FE0E0FF1F80B584B033
S113253000AF78607B68DB68DB68BB60BB68002B3E
S113254001D172B6FEE7BB6818331800FEF731FEFE
S11325501E4B1B68002B1DD1BB6804331800FEF70B
S113256028FEBB68DA6A1A4B1B689A4203D9BB6817
S1132570DA6A174B1A60BB68DA6A13009B009B186F
S11325809B00144A9A18BB68043319001000FEF724
S1132590B8FD07E0BB6818331A000F4B1100180090
S11325A0FEF7AFFDBB68DA6A0C4B1B68DB6A9A4224
S11325B005D90123FB600A4B01221A6001E00023C4
S11325C0FB60FB681800BD4604B080BD00E1FF1F3E
S11325D0E4E0FF1F34E0FF1FC8E0FF1F30E0FF1FEF
S11325E0F0E0FF1F80B584B000AF78603960244B01
S11325F01B68002B01D172B6FEE73B6880221206ED
S11326001A437B681A607B68DB68BB60BB68002B7D
S113261001D172B6FEE77B681800FEF7CAFDBB68FD
S113262004331800FEF7C5FDBB68DA6A154B1B6856
S11326309A4203D9BB68DA6A124B1A60BB68DA6A39
S113264013009B009B189B000F4A9A18BB68043325
S113265019001000FEF755FDBB68DA6A0B4B1B68C6
S1132660DB6A9A4205D90123FB60094B01221A60F7
S113267001E00023FB60FB681800BD4604B080BD88
S113268000E1FF1FE4E0FF1F34E0FF1F30E0FF1F05
S1132690F0E0FF1F80B582B000AF78607B68002B4C
S11326A001D172B6FEE7064B1A687B681A60054BC7
S11326B01A687B685A60C046BD4602B080BDC046F9
S11326C0F4E0FF1FE0E0FF1F80B584B000AF786046
S11326D039607B68002B01D172B6FEE73B68002BA2
S11326E001D172B6FEE700F061FE194B1B68BB60B6
S11326F07B681A68174B1B689A4207D07B685A6834
S1132700BB689A4202D80123FB6019E07B685B68CE
S1132710BA68D21A3B681B689A420FD23B681A689F
S11327207B685968BB68CB1AD2183B681A607B680F
S11327301800FFF7AFFF0023FB6001E00123FB60FB
S113274000F046FEFB681800BD4604B080BDC046DC
S1132750E0E0FF1FF4E0FF1F80B500AF024B012251
S11327601A60C046BD4680BDF0E0FF1F80B582B050
S113277000AF786000F098F8034B1B68012BF9D97F
S113278000F004FEF6E7C04634E0FF1F80B586B0D3
S113279000AFF860B9607A603B6000237B6113E0AE
S11327A0BA687B69D3181878FA6834217B69D3181E
S11327B05B18021C1A70BA687B69D3181B78002B4B
S11327C006D07B6901337B617B69092BE8D900E082
S11327D0C046FB683D22002199547B68042B01D933
S11327E004237B60FB687A68DA62FB687A681A649F
S11327F0FB6800225A64FB6804331800FEF776FC79
S1132800FB6818331800FEF771FCFB68FA681A615C
S11328107B680522D21AFB689A61FB68FA685A62DF
S1132820FB6800229A64FB684C2200219954C0463C
S1132830BD4606B080BD80B582B000AF00237B608A
S11328400CE07A6813009B009B189B00104A9B18AD
S11328501800FEF72DFC7B6801337B607B68042B3A
S1132860EFD90C4B1800FEF723FC0B4B1800FEF7B6
S11328701FFC0A4B1800FEF71BFC094B054A1A60A3
S1132880084B054A1A60C046BD4602B080BDC0462A
S113289034E0FF1F98E0FF1FACE0FF1FC8E0FF1FFC
S11328A0C0E0FF1FC4E0FF1F80B500AFC046BD46B7
S11328B080BD80B582B000AF7860144B1B687A6825
S11328C05A60134B1B687A689A4209D2114B1A68F2
S11328D00E4B1B68043319001000FEF734FC10E0A3
S11328E00D4B1A68094B1B68043319001000FEF7DE
S11328F02AFC0A4B1B687A689A4202D2074B7A6810
S11329001A60C046BD4602B080BDC04630E0FF1F1D
S1132910E0E0FF1FC4E0FF1FC0E0FF1FFCE0FF1F5B
S113292080B584B000AF02003960BB1D1A803B68DB
S1132930002B07D1BB1D1B889B00180000F0ACFBCB
S1132940030000E03B68BB60BB68002B10D0502044
S113295000F0A2FB0300FB60FB68002B03D0FB68C4
S1132960BA681A6306E0BB68180000F023FC01E0B3
S11329700023FB60FB681800BD4604B080BD80B531
S113298082B000AF0D4B1B681B68002B01D10123E3
S113299000E00023002B04D0094B012252421A60AC
S11329A008E0064B1B68DB68DB687B607B685A6861
S11329B0034B1A60C046BD4602B080BDC0E0FF1F95
S11329C0FCE0FF1F80B582B000AF044B1B687B6046
S11329D07B681800BD4602B080BDC04630E0FF1FD2
S11329E080B584B000AF78607B68FB607B68002BA7
S11329F04AD0FB68DA6A264B1B68DB6A9A4243D2E8
S1132A00FB689B69002B06DB214B1B68DB6A0522F4
S1132A10D21AFB689A61FB685969FB68DA6A130089
S1132A209B009B189B001B4A9B18994201D10123D0
S1132A3000E00023002B22D0FB6804331800FEF7CB
S1132A40B8FB134B1B68DA6AFB68DA62FB68DA6A64
S1132A50114B1B689A4203D9FB68DA6A0E4B1A6061
S1132A60FB68DA6A13009B009B189B00094A9A18BA
S1132A70FB68043319001000FEF743FB04E0044B29
S1132A801B68DA6AFB68DA62C046BD4604B080BDE2
S1132A9030E0FF1F34E0FF1FE4E0FF1F80B584B087
S1132AA000AF78607B68BB600023FB607B68002B11
S1132AB044D0254B1B68BA689A4201D072B6FEE72F
S1132AC0BB685B6C002B01D172B6FEE7BB685B6C24
S1132AD05A1EBB685A64BB68DA6ABB681B6C9A42AC
S1132AE02CD0BB685B6C002B28D1BB680433180066
S1132AF0FEF75FFBBB681A6CBB68DA62BB68DB6A13
S1132B000522D21ABB689A61BB68DA6A0F4B1B684C
S1132B109A4203D9BB68DA6A0C4B1A60BB68DA6A5A
S1132B2013009B009B189B00094A9A18BB68043346
S1132B3019001000FEF7E5FA0123FB60FB6818009A
S1132B40BD4604B080BDC04630E0FF1FE4E0FF1F77
S1132B5034E0FF1F80B582B000AF084B1B689B694F
S1132B607B60064B1B68054A1268D26A05218A1AE3
S1132B709A617B681800BD4602B080BD30E0FF1F3B
S1132B8080B500AF064B1B68002B04D0044B1B68B8
S1132B905A6C01325A64024B1B681800BD4680BD52
S1132BA030E0FF1F80B584B000AF7860396000F07A
S1132BB0FDFB214B1B689B6C002B18D11E4B1B6823
S1132BC04C22012199543B68002B10D01A4B1B68EE
S1132BD004331800FEF7EDFA184B1A683B68D31853
S1132BE0FB60FB681800FFF764FE00F0CFFB00F009
S1132BF0EFFB00F0DBFB104B1B689B6CBB60BB68FE
S1132C00002B0CD07B68002B04D00B4B1B680022DC
S1132C109A6404E0084B1B689A6C013A9A64064B68
S1132C201B684C220021995400F0D2FBBB681800A9
S1132C30BD4604B080BDC04630E0FF1FE0E0FF1F8A
S1132C4080B586B000AFF860B9607A603B6000F090
S1132C50ADFB294B1B684C229B5CDBB2022B1FD0C3
S1132C60254B1B689A6CF968C9430A409A64224B45
S1132C701B684C22012199543B68002B10D01E4B39
S1132C801B6804331800FEF794FA1C4B1A683B685F
S1132C90D3183B613B691800FFF70BFE00F076FB8D
S1132CA000F096FB00F082FB7B68002B04D0124BF3
S1132CB01B689A6C7B681A600F4B1B684C229B5CE8
S1132CC0DBB2012B02D100237B6108E00A4B1B68B5
S1132CD09A6CB968C9430A409A6401237B61064B24
S1132CE01B684C220021995400F072FB7B69180088
S1132CF0BD4606B080BDC04630E0FF1FE0E0FF1FC8
S1132D0080B588B000AFF860B9603B60FB1D1A70F5
S1132D100123FB61FB68002B01D172B6FEE7FB685F
S1132D20BB6100F043FB3B68002B03D0BB699A6C8A
S1132D303B681A601723FB18BA694C21525C1A705D
S1132D40BB694C2202219954FB1D1B78042B22D809
S1132D509A002D4BD3181B689F46BB699A6CBB68BD
S1132D601A43BB699A6416E0BB699B6C5A1CBB6925
S1132D709A6410E0BB69BA689A640CE01723FB18E4
S1132D801B78022B03D0BB69BA689A6403E0002362
S1132D90FB6100E0C0461723FB181B78012B2BD1E5
S1132DA0BB6904331800FEF704FABB69DA6A174BEF
S1132DB01B689A4203D9BB69DA6A144B1A60BB696F
S1132DC0DA6A13009B009B189B00114A9A18BB698E
S1132DD0043319001000FEF794F9BB699B6A002BB9
S1132DE001D072B6FEE7BB69DA6A0A4B1B68DB6A7C
S1132DF09A4201D900F0CAFA00F0EAFAFB69180015
S1132E00BD4608B080BDC046C8480000E4E0FF1FCE
S1132E1034E0FF1F30E0FF1F80B588B000AFF860DA
S1132E20B9603B60FB1D1A700123FB61FB68002B3A
S1132E3001D172B6FEE7FB68BB6100F0E1FA030062
S1132E407B613B68002B03D0BB699A6C3B681A60BA
S1132E501323FB18BA694C21525C1A70BB694C22CB
S1132E6002219954FB1D1B78042B22D89A00364B5F
S1132E70D3181B689F46BB699A6CBB681A43BB692D
S1132E809A6416E0BB699B6C5A1CBB699A6410E097
S1132E90BB69BA689A640CE01323FB181B78022BF5
S1132EA003D0BB69BA689A6403E00023FB6100E0C5
S1132EB0C0461323FB181B78012B3CD1BB699B6ACA
S1132EC0002B01D072B6FEE7204B1B68002B1DD1EE
S1132ED0BB6904331800FEF76CF9BB69DA6A1C4B52
S1132EE01B689A4203D9BB69DA6A194B1A60BB6939
S1132EF0DA6A13009B009B189B00164A9A18BB6958
S1132F00043319001000FEF7FCF807E0BB6918331E
S1132F101A00114B11001800FEF7F3F8BB69DA6AC6
S1132F200E4B1B68DB6A9A4205D9BB6A002B02D0A0
S1132F30BB6A01221A607B69180000F067FAFB691A
S1132F401800BD4608B080BDDC48000000E1FF1F4A
S1132F50E4E0FF1F34E0FF1FC8E0FF1F30E0FF1F65
S1132F6080B586B000AF786039607B68002B01D1F2
S1132F7072B6FEE77B687B6100F042FA03003B61B6
S1132F800F23FB187A694C21525C1A707B694C221E
S1132F90022199547B699B6C5A1C7B699A640F23A8
S1132FA0FB181B78012B3CD17B699B6A002B01D059
S1132FB072B6FEE71F4B1B68002B1DD17B690433DF
S1132FC01800FEF7F6F87B69DA6A1B4B1B689A4215
S1132FD003D97B69DA6A184B1A607B69DA6A1300D1
S1132FE09B009B189B00154A9A187B6904331900AF
S1132FF01000FEF786F807E07B6918331A00104BBF
S113300011001800FEF77DF87B69DA6A0D4B1B6826
S1133010DB6A9A4205D93B68002B02D03B68012247
S11330201A603B69180000F0F1F9C046BD4606B0CD
S113303080BDC04600E1FF1FE4E0FF1F34E0FF1F36
S1133040C8E0FF1F30E0FF1F80B584B000AF786098
S11330507B68BB60BB68002B02D10E4B1B6800E091
S1133060BB68BB6000F0A2F9BB684C229B5CDBB27E
S1133070022B06D1BB684C22002199540123FB602A
S113308001E00023FB6000F0A3F9FB681800BD46D3
S113309004B080BD30E0FF1F80B588B000AF786019
S11330A000237B61FFF720F83D4B1B68002B04D104
S11330B000F0C9F83A4B01221A607B68002B0DD04E
S11330C008231A007B689B187B607B6807221340E7
S11330D004D07B680722934308337B607B68002B12
S11330E056D07B682F4A934252D82F4BBB612E4B4C
S11330F01B68FB6104E0FB69BB61FB691B68FB6146
S1133100FB695A687B689A4203D2FB691B68002BEF
S1133110F1D1FA69254B9A423AD0BB691B6808225F
S11331209B187B61FB691A68BB691A60FB695A6862
S11331307B68D31A08225200934222D9FA697B6829
S1133140D318FB60FB695A687B68D21AFB685A6023
S1133150FB697A685A60FB685B68BB60124B3B6131
S113316002E03B691B683B613B691B685A68BB68AA
S11331709A42F6D33B691A68FB681A603B69FA689D
S11331801A600B4B1A68FB695B68D21A084B1A6009
S1133190FEF7B6FF7B691800BD4608B080BDC04687
S11331A014110020F72F0000041100200C1100203E
S11331B000E0FF1F80B586B000AF78607B683B619C
S11331C07B68002B27D008235B423A69D3183B6104
S11331D03B69FB60FEF788FFFB685B68BB60104BD4
S11331E07B6102E07B691B687B617B691B685A68B1
S11331F0BB689A42F6D37B691A68FB681A607B69DC
S1133200FA681A60FB685A68064B1B68D218054BAB
S11332101A60FEF775FFC046BD4606B080BDC046C5
S11332200411002000E0FF1F80B500AF024B1B68B3
S11332301800BD4680BDC04600E0FF1F80B500AF4A
S1133240C046BD4680BD80B582B000AF0D4B07229D
S113325093437B600C4B7A681A600B4B00225A60D4
S11332600A4B0B4A5A60094B00221A607B683B6088
S11332703B68074A5A603B68044A1A60C046BD4628
S113328002B080BD0CE1FF1F041100200C110020CE
S1133290F82F000080B584B000AFF860B9607A60A0
S11332A0FB68043BFB60FB68802252041A60FB68E5
S11332B0043BFB60BA68FB681A60FB68043BFB6074
S11332C0084AFB681A60FB68143BFB607A68FB6879
S11332D01A60FB68203BFB60FB681800BD4604B025
S11332E080BDC046E932000080B500AF034B1B68C7
S11332F0013301D072B6FEE772B6FEE704E0FF1FA9
S113330080B500AFC046BD4680BD064A1368186844
S1133310203080F30988022080F314883FBCAE4635
S113332062B600BD30E0FF1FC04680B500AF0D4B54
S11333300C4A1268FF2109040A431A60094B094A1E
S11333401268FF2109060A431A6000F09FF8064B31
S113335000221A60FFF7D9FFFFF7C6FF0023180009
S1133360BD4680BD20ED00E004E0FF1F80B500AF46
S1133370054B1A68FA239B009A4201D072B6FEE705
S1133380C046BD4680BDC04604E0FF1F80B500AF07
S1133390054B802252051A60BFF34F8FBFF36F8F26
S11333A0C046BD4680BDC04604ED00E080B500AF18
S11333B072B6064B1B685A1C044B1A60BFF34F8F3E
S11333C0BFF36F8FC046BD4680BDC04604E0FF1FFB
S11333D080B500AF094B1B68002B01D172B6FEE724
S11333E0064B1B685A1E054B1A60044B1B68002BC6
S11333F000D162B6C046BD4680BDC04604E0FF1F92
S1133400EFF3108072B670470023180080F3108821
S11334107047C046EFF309800E4B1A6820381060DD
S1133420F0C044464D4656465F46F0C008B572B6F5
S1133430FEF7C8FF62B60CBC116808681030F0C80B
S1133440A046A946B246BB4680F309882038F0C896
S11334501847C04630E0FF1FC04680B582B000AFB9
S1133460FFF7CEFF03007B60FEF7F6FE031E03D0DA
S1133470054B802252051A607B681800FFF7C6FFCF
S1133480C046BD4602B080BD04ED00E080B500AF8B
S1133490044B054A1A60054B07221A60C046BD4614
S11334A080BDC04614E000E07FBB000010E000E0F7
S11334B0002243088B4274D303098B425FD3030A6F
S11334C08B4244D3030B8B4228D3030C8B420DD382
S11334D0FF22090212BA030C8B4202D31212090210
S11334E065D0030B8B4219D300E0090AC30B8B424E
S11334F001D3CB03C01A5241830B8B4201D38B03FC
S1133500C01A5241430B8B4201D34B03C01A5241A0
S1133510030B8B4201D30B03C01A5241C30A8B42E3
S113352001D3CB02C01A5241830A8B4201D38B02CE
S1133530C01A5241430A8B4201D34B02C01A524172
S1133540030A8B4201D30B02C01A5241CDD2C309E4
S11335508B4201D3CB01C01A524183098B4201D360
S11335608B01C01A524143098B4201D34B01C01A4B
S1133570524103098B4201D30B01C01A5241C308C3
S11335808B4201D3CB00C01A524183088B4201D332
S11335908B00C01A524143088B4201D34B00C01A1E
S11335A05241411A00D20146524110467047FFE78A
S11335B001B5002000F0F0F802BDC0460029F7D0A4
S11335C076E7704703460B437FD4002243088B42BF
S11335D074D303098B425FD3030A8B4244D3030B96
S11335E08B4228D3030C8B420DD3FF22090212BA5B
S11335F0030C8B4202D31212090265D0030B8B42D7
S113360019D300E0090AC30B8B4201D3CB03C01AC0
S11336105241830B8B4201D38B03C01A5241430B9B
S11336208B4201D34B03C01A5241030B8B4201D38B
S11336300B03C01A5241C30A8B4201D3CB02C01AF6
S11336405241830A8B4201D38B02C01A5241430A6E
S11336508B4201D34B02C01A5241030A8B4201D35D
S11336600B02C01A5241CDD2C3098B4201D3CB0104
S1133670C01A524183098B4201D38B01C01A5241B3
S113368043098B4201D34B01C01A524103098B42B7
S113369001D30B01C01A5241C3088B4201D3CB00A2
S11336A0C01A524183088B4201D38B00C01A524185
S11336B043088B4201D34B00C01A5241411A00D235
S11336C001465241104670475DE0CA0F00D049429E
S11336D0031000D34042534000229C4603098B420E
S11336E02DD3030A8B4212D3FC22890112BA030A96
S11336F08B420CD3890192118B4208D38901921118
S11337008B4204D389013AD0921100E08909C3099C
S11337108B4201D3CB01C01A524183098B4201D39E
S11337208B01C01A524143098B4201D34B01C01A89
S1133730524103098B4201D30B01C01A5241C30801
S11337408B4201D3CB00C01A524183088B4201D370
S11337508B00C01A5241D9D243088B4201D34B008B
S1133760C01A5241411A00D20146634652415B10CD
S1133770104601D34042002B00D5494270476346AE
S11337805B1000D3404201B5002000F005F802BDF3
S11337900029F8D016E770477047C04670B500227C
S11337A00C4B04000D0000F0E7FE002804D12000BB
S11337B0290000F037FE70BD064B002220002900CE
S11337C000F01AFB00F02EFE80231B069C4660448A
S11337D0F1E7C0460000E041F8B54546DE465746ED
S11337E04E460C03E0B54E00C90F88460D00610A31
S11337F0440F0C43C70019035800DB0F9B464B0AC8
S1133800510F0B43760D400D1900D200D84500D15D
S1133810AEE0351A002D00DCF6E000280FD113438A
S113382000D1DBE06B1E002B00D037E1BA1A9742BF
S1133830BF41641A7F42E41B0126170024E0C64BF3
S11338409E424DD080231B041943382D00DD07E12F
S11338501F2D00DD38E12020431B9A460B00504603
S11338608340994613004846EB40184303005046F2
S11338708240501E8241E9401A43BA1A611A9742A3
S1133880A441170064420C1B230262D56402650A3A
S1133890002D00D1DFE0280000F078FE0300083B93
S11338A01F2B00DDD2E020223C00D21A9D40D440E0
S11338B09F4025439E4200DDC4E09E1B731C1F2BCA
S11338C000DDF1E0202238002900D21AD8409140CE
S11338D097402C000143781E8741DC4000260F43AB
S11338E07B0709D00F233B40042B05D03B1DBB4273
S11338F0BF417F42E4191F0023022CD5964B0136A9
S11339009E4200D19AE04546944BFF081C40600754
S1133910760564020743240B760D00212403230B50
S11339200C0D8F4A24051C431440330523435B00CC
S1133930ED075B082B43380019003CBC90469946C0
S1133940A246AB46F8BD6446044300D111E204002C
S113395067467B07C6D145466007FF080743E4086E
S11339607D4B9E4230D024037605240B760DD4E79C
S1133970331A9A46002B78DD002831D076488642E7
S1133980AED08020000401435346382B00DCE9E02C
S11339900A43511E8A410021D219BA42BF41091972
S11339A07C4217000C192302D3D56B4B01369E427F
S11339B000D13AE10120694B1C407B0807401F43BA
S11339C0E007074364088BE723003B4300D1CBE1C6
S11339D08022120314432403240B9EE72E007FE766
S11339E00800104300D1B4E0581E002800D0DEE0E7
S11339F0BA18BA429B4164185B42E41817000126C6
S1133A002302A6D50226D5E7002D6ED1701C4005F1
S1133A10400D012800DCF9E0B81A84468742804151
S1133A20E51A40422D1A280200D489E0D71BBA4275
S1133A3092411C1B5242A51AD84629E74546002448
S1133A4000276AE7454CF61A2C4049E73D00283820
S1133A50854000272EE7380000F098FD20301DE750
S1133A600A43511E8A41002107E7002B00D0F3E0EE
S1133A70701C43055B0D012B00DCADE0364B984216
S1133A8000D1D1E0BA18BA42BF4164187F42E419A8
S1133A90E707520817436408060021E72E488542C9
S1133AA000D193E01D00D0E629001F3EF140202BF9
S1133AB000D18DE04022D31A9D402F437D1EAF419B
S1133AC000240F43002644E72B000800203BD84085
S1133AD00300202D00D17DE04020451BA9400A436E
S1133AE0511E8A4100211A43C7E6002E50D01A4EB7
S1133AF0B04257D080266B429946360434434B4635
S1133B00382B00DDD6E01F2B00DD35E12026F51A29
S1133B102600AE40B2463E00DE40AC463500564676
S1133B202E436546AF407D1EAF41DC403743D71B73
S1133B30BA4292410C1B5242A41A0600D846A3E68C
S1133B40644667462C4300D0A2E6002500260027E1
S1133B5006E71E00C4E6C046FF070000FFFF7FFF24
S1133B60FFFF0F801F2B63DC2020C31A080098403E
S1133B709C46834653461000D840030058461843D9
S1133B8063469A40531E9A4153460243D94003E781
S1133B9026003E4306D0EB439946002BC7D0944EF3
S1133BA0B042ACD10C0017000600D84698E6904B02
S1133BB09A450BD08246E7E6002800D09EE0180024
S1133BC0104300D1E9E01C001700D846884E87E670
S1133BD0002572E7002182E723003B43002E00D03A
S1133BE0ABE0002B00D1E7E00B00134300D177E6F4
S1133BF0BA18BA42BF4164187F42E419230200D4C0
S1133C00F2E07C4B17001C40060069E620003843B4
S1133C10002ED1D100285BD11C00144300D1A8E0B0
S1133C201C001700D8465BE606000024002797E630
S1133C3050460B002038C34099465346202B00D1F0
S1133C4095E0402350461B1A99400A43511E8A416D
S1133C504B4600211A439FE6002E30D126003E43F6
S1133C6067D0DB439A46002B1CD0614EB04260D033
S1133C705346382B00DD96E01F2B00DD9FE0202605
S1133C80F31A26009E409C46B34653463E00DE404F
S1133C9033005E461E4363469F407B1E9F4153464E
S1133CA0DC403743BF189742924164185242A4182B
S1133CB0060078E627437C1EA741002437E74C4ED4
S1133CC0B04236D080265B4236049A463443CFE76E
S1133CD01800104300D103E6B81A84466745AD4185
S1133CE0E01A6D42401B050200D42CE6D71BBA42F1
S1133CF092411C1B5242A41AD846F1E51800104305
S1133D0000D163E7F808670707438020E40800034D
S1133D10044208D0DD08054205D1D20859071143F1
S1133D200F002C00D8467B0FE4001C43FF00304EEC
S1133D30D6E50C0017000600D2E5002B38D00B00A6
S1133D40134300D142E7F808670707438020E408DB
S1133D5000030442E7D0CB080342E4D1D208490768
S1133D6011430F001C00DEE700270024D5E50021E5
S1133D706BE700250027F3E54E462500203EF5407D
S1133D804B462E00202B2DD04025ED1AAC40274366
S1133D907C1EA74100243743C9E680240025240360
S1133DA0134E0027DCE527437C1EA741002479E756
S1133DB00C0017000E4E93E50C00170090E55646D4
S1133DC02300203EF34099465346202B0ED0402337
S1133DD056469B1B9C4027437C1EA7414B46002410
S1133DE01F435FE70024D2E71700B2E50024F2E79F
S1133DF0FF070000FFFF7FFFF0B54646D6464F465B
S1133E000C03C0B5CD0F4E00610A440F0C43C10032
S1133E105800400D84468A460F001903500F490A82
S1133E200143C648760DA846DB0FD200844500D175
S1133E30D8E001204340AB4200D1A6E06046351AE9
S1133E40002D00DC05E1002810D10B00134300D144
S1133E50D7E06B1E002B00D04BE153469F1ABA45A6
S1133E608041641A4042241A01261EE0B34B9E424C
S1133E7048D080231B041943382D00DD19E11F2D80
S1133E8000DD4CE120230F005B1B10009A409F4093
S1133E90E840531E9A41E940074317435346DF1B4A
S1133EA0611ABA45A44164420C1B230200D4C5E044
S1133EB06402650A002D00D1F6E0280000F066FBDC
S1133EC00300083B1F2B00DDE9E020223C00D21A4E
S1133ED09D40D4409F4025439E4200DDDBE09E1B75
S1133EE0731C1F2B00DD0AE120223800D21A29009E
S1133EF097402C009140D8407A1E9741DC40002620
S1133F0001430F437B0709D00F233B40042B05D00B
S1133F103B1DBB42BF417F42E4191F00230225D54C
S1133F20864B01369E4200D1AFE0854B01251C40F3
S1133F3043466207FF08640276051743240B760D97
S1133F401D4000212403230B0C0D7E4A24051C4331
S1133F501440330523435B00ED075B082B43380013
S1133F6019001CBC90469946A246F0BD0125434663
S1133F706207FF081743E4081D40704B9E4236D089
S1133F8024037605240B760DDBE76346F31A002B36
S1133F9000DC94E06046002835D068488642B1D001
S1133FA080273F043943382B00DCFDE00A43170027
S1133FB000217A1E974157445745804109194442CC
S1133FC00C1923023AD55D4B01369E4200D14BE1D8
S1133FD001225B4B1C407B0817401F43E207174339
S1133FE064088FE70800104300D024E721E723008A
S1133FF03B4300D1B9E18022120314432403240B70
S11340009FE72E007EE70800104300D1CAE0581E47
S11340108446002800D0E7E05244524580416418A9
S11340204042241817000126230207D50226CFE7B1
S113403064462C4300D1B3E12C0067467B0700D0D3
S113404062E76307FF081F4301254346E4081D4058
S113405093E7002D78D1751C6D056D0D012D00DCE5
S1134060F2E05046801A8245BF41651A7F42ED1B3B
S11340708446280200D48CE05046171ABA42924172
S11340800C1B5542651B984614E701254346002442
S11340901D40002755E72A4CF61A2C4032E73D0014
S11340A028388540002717E7380000F06FFA2030E1
S11340B006E70A43170000217A1E9741EEE6002B1B
S11340C000D0E5E0731C9C465B055B0D012B00DC16
S11340D09FE01A4B9C4500D1C5E0524452458041B3
S11340E0641840422418E7075208174364086646D8
S11340F008E71248854200D185E01D00BCE629008E
S11341001F3EF140202B00D17FE04022D31A9D4076
S11341102F437D1EAF4100240F4300268EE72B0062
S11341200F00203BDF40202D71D040235D1BA940B0
S11341300A43511E8A4100211743AFE6FF070000DE
S1134140FFFF7FFFFFFF0F80002E3ED0B34EB4452C
S113415045D0802636046D423443382D00DDA8E076
S11341601F2D00DD1FE1202627005046761BB74097
S1134170E84007435046B040461EB041EC40384347
S1134180171ABA4292410C1B5242A41A6646984628
S11341908BE6644667462C4300D08BE60025002658
S11341A00027EAE61E00ADE61F2B60DC2027F81A84
S11341B00F00844687401000D84007436046824081
S11341C0501E8241D9401743F5E626005046064367
S11341D005D0ED43002DD3D0904EB445BDD10C0095
S11341E01700664698468DE68C4883420BD063469A
S11341F0D9E6002D00D096E00800104300D1E2E09B
S11342000C0017009846854E7CE6002580E70021C7
S11342108EE7230050460343002E00D0A8E0002B75
S113422000D1DEE00B00134300D16BE6524452454B
S113423080416418404224181700230200D4FDE68C
S1134240774B66461C405DE6250050460543002E2C
S1134250CFD1002D4FD10C00144300D1A0E00C00AD
S1134260170098464EE666460024002785E61F00A0
S11342700800203FF8400700202B00D18EE04020AA
S1134280C31A99400A43511E8A410021174392E6FA
S1134290002E14D126005046064362D0DB43002B87
S11342A05CD187189742924164185242A41866461A
S11342B087E650462043441EA041002460E7574E41
S11342C0B4454ED0802636045B423443382B00DD9F
S11342D07FE01F2B00DD8BE0202627005046F61AD6
S11342E0B740D84007435046B040461EB04107434C
S11342F0DC40BF18D6E70D00154300D102E6504656
S1134300801A8245BF41651A7F42ED1B844628020C
S113431000D48DE65046171ABA4292410C1B524201
S1134320A41A9846EEE50D00154300D16BE75046FC
S11343306707C00807438020E4080003044207D04D
S1134340CD08054204D12C009846D70849070F43ED
S11343507B0FE4001C43FF00304ED3E52F4EB445E1
S1134360B4D10C0017006646CCE500270024E8E52C
S1134370002B39D00B00134300D144E7C008670772
S113438007438020E40800030442E1D0CB08034241
S1134390DED1D70849070F431C00D9E7002171E794
S11343A000250027E9E52E002700203EF740202DB8
S11343B02FD04026751BAC4050462043441EA041DC
S11343C000243843DCE6802400252403134E002710
S11343D0D3E5504620430700781E87410024BF18C8
S11343E060E70C0017008DE50C0017000B4E89E503
S11343F01E002700203EF740202B0CD04026F31A45
S11344009C4050462043441EA04107430024BF184B
S113441048E70024D0E70024F3E7C046FF07000084
S1134420FFFF7FFF30B5134D0A034B00120B5B0DEA
S1134430C90F0024AB4210DD0F4CA3420FDC8024D3
S11344400E4D64032243ED1A1F2D0BDD0C48C31AD5
S1134450DA405442002900D11400200030BD094B39
S1134460CC18FAE7084CE840A44663449A40024357
S1134470EFE7C046FE0300001D0400003304000003
S113448013040000FFFFFF7FEDFBFFFF70B5002862
S113449030D0C317C4185C40C50F200000F076F874
S11344A0174B184A1B1AD21A1F2A18DD164AD21A99
S11344B09440002224035B05240B5B0D00211000B3
S11344C024030A0D240B12052243104C1B05224021
S11344D013435B00ED075B082B43190070BD2100FB
S11344E091400A000B21081AC4405B052403240BE5
S11344F05B0DE3E70025002300240022DEE7C0462D
S11345001E0400003304000013040000FFFF0F80AA
S11345108446101C62468C46191C634600E0C04663
S11345201FB500F0EFF8002801D40021C8421FBDD8
S113453010B500F049F84042013010BD10B500F04C
S1134540E1F8002801DB002010BD012010BDC046A9
S113455010B500F0D7F8002801DD002010BD0120BF
S113456010BDC04610B500F069F8002801DC002039
S113457010BD012010BDC04610B500F05FF8002842
S113458001DA002010BD012010BDC0461C2101230A
S11345901B04984201D3000C10391B0A984201D322
S11345A0000A08391B09984201D30009043902A200
S11345B0105C40187047C046040302020101010167
S11345C00000000000000000F0B54F464646D64605
S11345D05C00C0B51F03DB0F9A46174B0E034D005A
S11345E084468046360B6D0DC90F91463F0B640D12
S11345F001209D4208D09C4201D0A5420BD01CBC96
S113460090469946A246F0BD63463343F7D1AC4287
S1134610F5D13A43F3D10120BE42F0D1C845EED1E1
S1134620514507D0002DEAD163461E433000461E93
S1134630B041E4E70020E2E7FF070000F0B545469B
S1134640DE4657464E46E0B51F033D0B2C4F0E0386
S11346504C00AB465D008446360B640DC90F904692
S11346606D0DDB0FBC422AD0254FBD422DD0002C4E
S11346700FD130430700814678427841C0B2002D03
S113468017D15F463A4314D14B460020002B0AD081
S113469006E0002D02D15846024301D0994218D0B9
S11346A04842012108433CBC90469946A246AB4689
S11346B0F0BD0028F2D00120013B1843F3E7370096
S11346C00743D1D002204042EDE75F461743CED0E6
S11346D0F8E7AC42E4DC03DA481E01210843E2E7D0
S11346E05E45DDD806D000205E45DCD20123481E9D
S11346F01843D8E7C445D3D80020C445F6D3D2E73D
S1134700FF070000F0B54E464546DE4657465C00BE
S1134710E0B51F03DB0F99462A4B0E034D00C90F6A
S11347208446360B6D0D8B4690463F0B640D9D42BF
S113473020D0244B9C4222D0002D12D1304343423E
S11347404341DBB2002C1FD0002B0CD04B46012080
S1134750013B034318003CBC90469946A246AB4635
S1134760F0BD002C16D0CB4517D05B46594201232F
S11347700B43EFE7310002230143EBD1D9E73900C2
S113478002231143E6D1D7E73A43DDD100230028C1
S1134790E0D0EAE73A43E6D1E7E7A542E5DC05DB0A
S11347A0BE42E2D807D00023BE42D3D259460123E9
S11347B001390B43CEE7C445D7D80023C445F5D30C
S11347C0C8E7C046FF070000F0B505000F2A2FD93F
S11347D00B0003439B0734D116000C000300103E6A
S11347E0350901352D01451927681F6067685F6029
S11347F0A7689F60E7681034DF6010339D42F3D1EF
S11348000F239E431036851989191340032B1AD997
S11348101E1F0023B4080134A400CF58EF50043302
S1134820A342FAD10324A643331D2240C918ED182C
S1134830002A05D00023CC5CEC5401339342FAD116
S1134840F0BD0500F6E71A00F2E7C0462511070897
S113485035260A0BAA050000DC0500000E06000040
S11348604006000072060000A4060000D606000000
S1134870080700003A0700006C0700009E070000CC
S1134880D007000002080000340800006608000099
S1134890980800005461736B446973706C6179000B
S11348A05461736B5265636569766550000000005E
S11348B05461736B53756D537769746368000000BA
S11348C049444C4500000000942D00005A2D00007E
S11348D0682D0000742D00007C2D0000B02E000017
S11348E0762E0000842E0000902E0000982E0000EA
S10748F0F8B5C0460D
S10748F4F8B5C04609
S10B48F8F82F0000AAAAAAAAE5
S9030410E8
